{
  "contractName": "Adulam",
  "abi": [
    {
      "inputs": [
        {
          "internalType": "string",
          "name": "_name",
          "type": "string"
        },
        {
          "internalType": "string",
          "name": "_symbol",
          "type": "string"
        },
        {
          "internalType": "string",
          "name": "_baseURI",
          "type": "string"
        }
      ],
      "stateMutability": "nonpayable",
      "type": "constructor"
    },
    {
      "anonymous": false,
      "inputs": [
        {
          "indexed": true,
          "internalType": "address",
          "name": "owner",
          "type": "address"
        },
        {
          "indexed": true,
          "internalType": "address",
          "name": "approved",
          "type": "address"
        },
        {
          "indexed": true,
          "internalType": "uint256",
          "name": "tokenId",
          "type": "uint256"
        }
      ],
      "name": "Approval",
      "type": "event"
    },
    {
      "anonymous": false,
      "inputs": [
        {
          "indexed": true,
          "internalType": "address",
          "name": "owner",
          "type": "address"
        },
        {
          "indexed": true,
          "internalType": "address",
          "name": "operator",
          "type": "address"
        },
        {
          "indexed": false,
          "internalType": "bool",
          "name": "approved",
          "type": "bool"
        }
      ],
      "name": "ApprovalForAll",
      "type": "event"
    },
    {
      "anonymous": false,
      "inputs": [
        {
          "indexed": true,
          "internalType": "address",
          "name": "previousOwner",
          "type": "address"
        },
        {
          "indexed": true,
          "internalType": "address",
          "name": "newOwner",
          "type": "address"
        }
      ],
      "name": "OwnershipTransferred",
      "type": "event"
    },
    {
      "anonymous": false,
      "inputs": [
        {
          "indexed": false,
          "internalType": "uint256",
          "name": "id",
          "type": "uint256"
        },
        {
          "indexed": true,
          "internalType": "address",
          "name": "from",
          "type": "address"
        },
        {
          "indexed": true,
          "internalType": "address",
          "name": "to",
          "type": "address"
        },
        {
          "indexed": false,
          "internalType": "uint256",
          "name": "cost",
          "type": "uint256"
        },
        {
          "indexed": false,
          "internalType": "string",
          "name": "metadataURI",
          "type": "string"
        },
        {
          "indexed": false,
          "internalType": "uint256",
          "name": "timestamp",
          "type": "uint256"
        }
      ],
      "name": "Sale",
      "type": "event"
    },
    {
      "anonymous": false,
      "inputs": [
        {
          "indexed": true,
          "internalType": "address",
          "name": "from",
          "type": "address"
        },
        {
          "indexed": true,
          "internalType": "address",
          "name": "to",
          "type": "address"
        },
        {
          "indexed": true,
          "internalType": "uint256",
          "name": "tokenId",
          "type": "uint256"
        }
      ],
      "name": "Transfer",
      "type": "event"
    },
    {
      "inputs": [
        {
          "internalType": "address",
          "name": "to",
          "type": "address"
        },
        {
          "internalType": "uint256",
          "name": "tokenId",
          "type": "uint256"
        }
      ],
      "name": "approve",
      "outputs": [],
      "stateMutability": "nonpayable",
      "type": "function"
    },
    {
      "inputs": [
        {
          "internalType": "address",
          "name": "owner",
          "type": "address"
        }
      ],
      "name": "balanceOf",
      "outputs": [
        {
          "internalType": "uint256",
          "name": "",
          "type": "uint256"
        }
      ],
      "stateMutability": "view",
      "type": "function",
      "constant": true
    },
    {
      "inputs": [],
      "name": "baseURI",
      "outputs": [
        {
          "internalType": "string",
          "name": "",
          "type": "string"
        }
      ],
      "stateMutability": "view",
      "type": "function",
      "constant": true
    },
    {
      "inputs": [],
      "name": "cost",
      "outputs": [
        {
          "internalType": "uint256",
          "name": "",
          "type": "uint256"
        }
      ],
      "stateMutability": "view",
      "type": "function",
      "constant": true
    },
    {
      "inputs": [
        {
          "internalType": "string",
          "name": "",
          "type": "string"
        }
      ],
      "name": "existingURIs",
      "outputs": [
        {
          "internalType": "uint8",
          "name": "",
          "type": "uint8"
        }
      ],
      "stateMutability": "view",
      "type": "function",
      "constant": true
    },
    {
      "inputs": [
        {
          "internalType": "uint256",
          "name": "tokenId",
          "type": "uint256"
        }
      ],
      "name": "getApproved",
      "outputs": [
        {
          "internalType": "address",
          "name": "",
          "type": "address"
        }
      ],
      "stateMutability": "view",
      "type": "function",
      "constant": true
    },
    {
      "inputs": [
        {
          "internalType": "address",
          "name": "owner",
          "type": "address"
        },
        {
          "internalType": "address",
          "name": "operator",
          "type": "address"
        }
      ],
      "name": "isApprovedForAll",
      "outputs": [
        {
          "internalType": "bool",
          "name": "",
          "type": "bool"
        }
      ],
      "stateMutability": "view",
      "type": "function",
      "constant": true
    },
    {
      "inputs": [],
      "name": "maxSupply",
      "outputs": [
        {
          "internalType": "uint256",
          "name": "",
          "type": "uint256"
        }
      ],
      "stateMutability": "view",
      "type": "function",
      "constant": true
    },
    {
      "inputs": [],
      "name": "name",
      "outputs": [
        {
          "internalType": "string",
          "name": "",
          "type": "string"
        }
      ],
      "stateMutability": "view",
      "type": "function",
      "constant": true
    },
    {
      "inputs": [],
      "name": "owner",
      "outputs": [
        {
          "internalType": "address",
          "name": "",
          "type": "address"
        }
      ],
      "stateMutability": "view",
      "type": "function",
      "constant": true
    },
    {
      "inputs": [
        {
          "internalType": "uint256",
          "name": "tokenId",
          "type": "uint256"
        }
      ],
      "name": "ownerOf",
      "outputs": [
        {
          "internalType": "address",
          "name": "",
          "type": "address"
        }
      ],
      "stateMutability": "view",
      "type": "function",
      "constant": true
    },
    {
      "inputs": [],
      "name": "renounceOwnership",
      "outputs": [],
      "stateMutability": "nonpayable",
      "type": "function"
    },
    {
      "inputs": [
        {
          "internalType": "address",
          "name": "from",
          "type": "address"
        },
        {
          "internalType": "address",
          "name": "to",
          "type": "address"
        },
        {
          "internalType": "uint256",
          "name": "tokenId",
          "type": "uint256"
        }
      ],
      "name": "safeTransferFrom",
      "outputs": [],
      "stateMutability": "nonpayable",
      "type": "function"
    },
    {
      "inputs": [
        {
          "internalType": "address",
          "name": "from",
          "type": "address"
        },
        {
          "internalType": "address",
          "name": "to",
          "type": "address"
        },
        {
          "internalType": "uint256",
          "name": "tokenId",
          "type": "uint256"
        },
        {
          "internalType": "bytes",
          "name": "data",
          "type": "bytes"
        }
      ],
      "name": "safeTransferFrom",
      "outputs": [],
      "stateMutability": "nonpayable",
      "type": "function"
    },
    {
      "inputs": [
        {
          "internalType": "address",
          "name": "operator",
          "type": "address"
        },
        {
          "internalType": "bool",
          "name": "approved",
          "type": "bool"
        }
      ],
      "name": "setApprovalForAll",
      "outputs": [],
      "stateMutability": "nonpayable",
      "type": "function"
    },
    {
      "inputs": [],
      "name": "supply",
      "outputs": [
        {
          "internalType": "uint256",
          "name": "",
          "type": "uint256"
        }
      ],
      "stateMutability": "view",
      "type": "function",
      "constant": true
    },
    {
      "inputs": [
        {
          "internalType": "bytes4",
          "name": "interfaceId",
          "type": "bytes4"
        }
      ],
      "name": "supportsInterface",
      "outputs": [
        {
          "internalType": "bool",
          "name": "",
          "type": "bool"
        }
      ],
      "stateMutability": "view",
      "type": "function",
      "constant": true
    },
    {
      "inputs": [],
      "name": "symbol",
      "outputs": [
        {
          "internalType": "string",
          "name": "",
          "type": "string"
        }
      ],
      "stateMutability": "view",
      "type": "function",
      "constant": true
    },
    {
      "inputs": [
        {
          "internalType": "uint256",
          "name": "index",
          "type": "uint256"
        }
      ],
      "name": "tokenByIndex",
      "outputs": [
        {
          "internalType": "uint256",
          "name": "",
          "type": "uint256"
        }
      ],
      "stateMutability": "view",
      "type": "function",
      "constant": true
    },
    {
      "inputs": [
        {
          "internalType": "address",
          "name": "owner",
          "type": "address"
        },
        {
          "internalType": "uint256",
          "name": "index",
          "type": "uint256"
        }
      ],
      "name": "tokenOfOwnerByIndex",
      "outputs": [
        {
          "internalType": "uint256",
          "name": "",
          "type": "uint256"
        }
      ],
      "stateMutability": "view",
      "type": "function",
      "constant": true
    },
    {
      "inputs": [
        {
          "internalType": "uint256",
          "name": "tokenId",
          "type": "uint256"
        }
      ],
      "name": "tokenURI",
      "outputs": [
        {
          "internalType": "string",
          "name": "",
          "type": "string"
        }
      ],
      "stateMutability": "view",
      "type": "function",
      "constant": true
    },
    {
      "inputs": [],
      "name": "totalSupply",
      "outputs": [
        {
          "internalType": "uint256",
          "name": "",
          "type": "uint256"
        }
      ],
      "stateMutability": "view",
      "type": "function",
      "constant": true
    },
    {
      "inputs": [
        {
          "internalType": "address",
          "name": "from",
          "type": "address"
        },
        {
          "internalType": "address",
          "name": "to",
          "type": "address"
        },
        {
          "internalType": "uint256",
          "name": "tokenId",
          "type": "uint256"
        }
      ],
      "name": "transferFrom",
      "outputs": [],
      "stateMutability": "nonpayable",
      "type": "function"
    },
    {
      "inputs": [
        {
          "internalType": "address",
          "name": "newOwner",
          "type": "address"
        }
      ],
      "name": "transferOwnership",
      "outputs": [],
      "stateMutability": "nonpayable",
      "type": "function"
    },
    {
      "inputs": [
        {
          "internalType": "string",
          "name": "title",
          "type": "string"
        },
        {
          "internalType": "string",
          "name": "description",
          "type": "string"
        }
      ],
      "name": "payToMint",
      "outputs": [],
      "stateMutability": "payable",
      "type": "function",
      "payable": true
    },
    {
      "inputs": [],
      "name": "getAllNFTs",
      "outputs": [
        {
          "components": [
            {
              "internalType": "uint256",
              "name": "id",
              "type": "uint256"
            },
            {
              "internalType": "address",
              "name": "from",
              "type": "address"
            },
            {
              "internalType": "address",
              "name": "to",
              "type": "address"
            },
            {
              "internalType": "uint256",
              "name": "cost",
              "type": "uint256"
            },
            {
              "internalType": "string",
              "name": "title",
              "type": "string"
            },
            {
              "internalType": "string",
              "name": "description",
              "type": "string"
            },
            {
              "internalType": "uint256",
              "name": "timestamp",
              "type": "uint256"
            }
          ],
          "internalType": "struct Adulam.SaleStruct[]",
          "name": "",
          "type": "tuple[]"
        }
      ],
      "stateMutability": "view",
      "type": "function",
      "constant": true
    },
    {
      "inputs": [
        {
          "internalType": "uint256",
          "name": "tokenId",
          "type": "uint256"
        }
      ],
      "name": "getAnNFTs",
      "outputs": [
        {
          "components": [
            {
              "internalType": "uint256",
              "name": "id",
              "type": "uint256"
            },
            {
              "internalType": "address",
              "name": "from",
              "type": "address"
            },
            {
              "internalType": "address",
              "name": "to",
              "type": "address"
            },
            {
              "internalType": "uint256",
              "name": "cost",
              "type": "uint256"
            },
            {
              "internalType": "string",
              "name": "title",
              "type": "string"
            },
            {
              "internalType": "string",
              "name": "description",
              "type": "string"
            },
            {
              "internalType": "uint256",
              "name": "timestamp",
              "type": "uint256"
            }
          ],
          "internalType": "struct Adulam.SaleStruct",
          "name": "",
          "type": "tuple"
        }
      ],
      "stateMutability": "view",
      "type": "function",
      "constant": true
    }
  ],
  "bytecode": "0x6080604052662386f26fc10000600c556064600d553480156200002157600080fd5b5060405162004b7338038062004b738339818101604052810190620000479190620003fd565b8282816000908051906020019062000061929190620001b0565b5080600190805190602001906200007a929190620001b0565b5050506200009d62000091620000d560201b60201c565b620000dd60201b60201c565b620000ad620001a360201b60201c565b600e8190555080600f9080519060200190620000cb929190620001b0565b505050506200051b565b600033905090565b6000600a60009054906101000a900473ffffffffffffffffffffffffffffffffffffffff16905081600a60006101000a81548173ffffffffffffffffffffffffffffffffffffffff021916908373ffffffffffffffffffffffffffffffffffffffff1602179055508173ffffffffffffffffffffffffffffffffffffffff168173ffffffffffffffffffffffffffffffffffffffff167f8be0079c531659141344cd1fd0a4f28419497f9722a3daafe3b4186f6b6457e060405160405180910390a35050565b6000600880549050905090565b828054620001be90620004e5565b90600052602060002090601f016020900481019282620001e257600085556200022e565b82601f10620001fd57805160ff19168380011785556200022e565b828001600101855582156200022e579182015b828111156200022d57825182559160200191906001019062000210565b5b5090506200023d919062000241565b5090565b5b808211156200025c57600081600090555060010162000242565b5090565b6000604051905090565b600080fd5b600080fd5b600080fd5b600080fd5b6000601f19601f8301169050919050565b7f4e487b7100000000000000000000000000000000000000000000000000000000600052604160045260246000fd5b620002c9826200027e565b810181811067ffffffffffffffff82111715620002eb57620002ea6200028f565b5b80604052505050565b60006200030062000260565b90506200030e8282620002be565b919050565b600067ffffffffffffffff8211156200033157620003306200028f565b5b6200033c826200027e565b9050602081019050919050565b60005b83811015620003695780820151818401526020810190506200034c565b8381111562000379576000848401525b50505050565b600062000396620003908462000313565b620002f4565b905082815260208101848484011115620003b557620003b462000279565b5b620003c284828562000349565b509392505050565b600082601f830112620003e257620003e162000274565b5b8151620003f48482602086016200037f565b91505092915050565b6000806000606084860312156200041957620004186200026a565b5b600084015167ffffffffffffffff8111156200043a57620004396200026f565b5b6200044886828701620003ca565b935050602084015167ffffffffffffffff8111156200046c576200046b6200026f565b5b6200047a86828701620003ca565b925050604084015167ffffffffffffffff8111156200049e576200049d6200026f565b5b620004ac86828701620003ca565b9150509250925092565b7f4e487b7100000000000000000000000000000000000000000000000000000000600052602260045260246000fd5b60006002820490506001821680620004fe57607f821691505b60208210811415620005155762000514620004b6565b5b50919050565b614648806200052b6000396000f3fe60806040526004361061019c5760003560e01c80636c0360eb116100ec578063b88d4fde1161008a578063e0391b0911610064578063e0391b09146105e1578063e985e9c51461060c578063f2fde38b14610649578063f37971df146106725761019c565b8063b88d4fde14610550578063c87b56dd14610579578063d5abeb01146105b65761019c565b80637d99c858116100c65780637d99c858146104b55780638da5cb5b146104d157806395d89b41146104fc578063a22cb465146105275761019c565b80636c0360eb1461043657806370a0823114610461578063715018a61461049e5761019c565b806318160ddd1161015957806342842e0e1161013357806342842e0e146103565780634f6ccce71461037f5780636352211e146103bc57806368ef9d3c146103f95761019c565b806318160ddd146102c557806323b872dd146102f05780632f745c59146103195761019c565b806301ffc9a7146101a1578063047fc9aa146101de57806306fdde0314610209578063081812fc14610234578063095ea7b31461027157806313faede61461029a575b600080fd5b3480156101ad57600080fd5b506101c860048036038101906101c39190612e29565b6106af565b6040516101d59190612e71565b60405180910390f35b3480156101ea57600080fd5b506101f3610729565b6040516102009190612ea5565b60405180910390f35b34801561021557600080fd5b5061021e61072f565b60405161022b9190612f59565b60405180910390f35b34801561024057600080fd5b5061025b60048036038101906102569190612fa7565b6107c1565b6040516102689190613015565b60405180910390f35b34801561027d57600080fd5b506102986004803603810190610293919061305c565b610807565b005b3480156102a657600080fd5b506102af61091f565b6040516102bc9190612ea5565b60405180910390f35b3480156102d157600080fd5b506102da610925565b6040516102e79190612ea5565b60405180910390f35b3480156102fc57600080fd5b506103176004803603810190610312919061309c565b610932565b005b34801561032557600080fd5b50610340600480360381019061033b919061305c565b610992565b60405161034d9190612ea5565b60405180910390f35b34801561036257600080fd5b5061037d6004803603810190610378919061309c565b610a37565b005b34801561038b57600080fd5b506103a660048036038101906103a19190612fa7565b610a57565b6040516103b39190612ea5565b60405180910390f35b3480156103c857600080fd5b506103e360048036038101906103de9190612fa7565b610ac8565b6040516103f09190613015565b60405180910390f35b34801561040557600080fd5b50610420600480360381019061041b9190612fa7565b610b4f565b60405161042d91906131fa565b60405180910390f35b34801561044257600080fd5b5061044b610d85565b6040516104589190612f59565b60405180910390f35b34801561046d57600080fd5b506104886004803603810190610483919061321c565b610e13565b6040516104959190612ea5565b60405180910390f35b3480156104aa57600080fd5b506104b3610ecb565b005b6104cf60048036038101906104ca919061337e565b610edf565b005b3480156104dd57600080fd5b506104e6611265565b6040516104f39190613015565b60405180910390f35b34801561050857600080fd5b5061051161128f565b60405161051e9190612f59565b60405180910390f35b34801561053357600080fd5b5061054e60048036038101906105499190613422565b611321565b005b34801561055c57600080fd5b5061057760048036038101906105729190613503565b611337565b005b34801561058557600080fd5b506105a0600480360381019061059b9190612fa7565b611399565b6040516105ad9190612f59565b60405180910390f35b3480156105c257600080fd5b506105cb611401565b6040516105d89190612ea5565b60405180910390f35b3480156105ed57600080fd5b506105f6611407565b60405161060391906136eb565b60405180910390f35b34801561061857600080fd5b50610633600480360381019061062e919061370d565b611654565b6040516106409190612e71565b60405180910390f35b34801561065557600080fd5b50610670600480360381019061066b919061321c565b6116e8565b005b34801561067e57600080fd5b506106996004803603810190610694919061374d565b61176c565b6040516106a691906137b2565b60405180910390f35b60007f780e9d63000000000000000000000000000000000000000000000000000000007bffffffffffffffffffffffffffffffffffffffffffffffffffffffff1916827bffffffffffffffffffffffffffffffffffffffffffffffffffffffff191614806107225750610721826117a2565b5b9050919050565b600e5481565b60606000805461073e906137fc565b80601f016020809104026020016040519081016040528092919081815260200182805461076a906137fc565b80156107b75780601f1061078c576101008083540402835291602001916107b7565b820191906000526020600020905b81548152906001019060200180831161079a57829003601f168201915b5050505050905090565b60006107cc82611884565b6004600083815260200190815260200160002060009054906101000a900473ffffffffffffffffffffffffffffffffffffffff169050919050565b600061081282610ac8565b90508073ffffffffffffffffffffffffffffffffffffffff168373ffffffffffffffffffffffffffffffffffffffff161415610883576040517f08c379a000000000000000000000000000000000000000000000000000000000815260040161087a906138a0565b60405180910390fd5b8073ffffffffffffffffffffffffffffffffffffffff166108a26118cf565b73ffffffffffffffffffffffffffffffffffffffff1614806108d157506108d0816108cb6118cf565b611654565b5b610910576040517f08c379a000000000000000000000000000000000000000000000000000000000815260040161090790613932565b60405180910390fd5b61091a83836118d7565b505050565b600c5481565b6000600880549050905090565b61094361093d6118cf565b82611990565b610982576040517f08c379a0000000000000000000000000000000000000000000000000000000008152600401610979906139c4565b60405180910390fd5b61098d838383611a25565b505050565b600061099d83610e13565b82106109de576040517f08c379a00000000000000000000000000000000000000000000000000000000081526004016109d590613a56565b60405180910390fd5b600660008473ffffffffffffffffffffffffffffffffffffffff1673ffffffffffffffffffffffffffffffffffffffff168152602001908152602001600020600083815260200190815260200160002054905092915050565b610a5283838360405180602001604052806000815250611337565b505050565b6000610a61610925565b8210610aa2576040517f08c379a0000000000000000000000000000000000000000000000000000000008152600401610a9990613ae8565b60405180910390fd5b60088281548110610ab657610ab5613b08565b5b90600052602060002001549050919050565b600080610ad483611d1f565b9050600073ffffffffffffffffffffffffffffffffffffffff168173ffffffffffffffffffffffffffffffffffffffff161415610b46576040517f08c379a0000000000000000000000000000000000000000000000000000000008152600401610b3d90613b83565b60405180910390fd5b80915050919050565b610b57612cb1565b6010600183610b669190613bd2565b81548110610b7757610b76613b08565b5b90600052602060002090600702016040518060e0016040529081600082015481526020016001820160009054906101000a900473ffffffffffffffffffffffffffffffffffffffff1673ffffffffffffffffffffffffffffffffffffffff1673ffffffffffffffffffffffffffffffffffffffff1681526020016002820160009054906101000a900473ffffffffffffffffffffffffffffffffffffffff1673ffffffffffffffffffffffffffffffffffffffff1673ffffffffffffffffffffffffffffffffffffffff16815260200160038201548152602001600482018054610c60906137fc565b80601f0160208091040260200160405190810160405280929190818152602001828054610c8c906137fc565b8015610cd95780601f10610cae57610100808354040283529160200191610cd9565b820191906000526020600020905b815481529060010190602001808311610cbc57829003601f168201915b50505050508152602001600582018054610cf2906137fc565b80601f0160208091040260200160405190810160405280929190818152602001828054610d1e906137fc565b8015610d6b5780601f10610d4057610100808354040283529160200191610d6b565b820191906000526020600020905b815481529060010190602001808311610d4e57829003601f168201915b505050505081526020016006820154815250509050919050565b600f8054610d92906137fc565b80601f0160208091040260200160405190810160405280929190818152602001828054610dbe906137fc565b8015610e0b5780601f10610de057610100808354040283529160200191610e0b565b820191906000526020600020905b815481529060010190602001808311610dee57829003601f168201915b505050505081565b60008073ffffffffffffffffffffffffffffffffffffffff168273ffffffffffffffffffffffffffffffffffffffff161415610e84576040517f08c379a0000000000000000000000000000000000000000000000000000000008152600401610e7b90613c78565b60405180910390fd5b600360008373ffffffffffffffffffffffffffffffffffffffff1673ffffffffffffffffffffffffffffffffffffffff168152602001908152602001600020549050919050565b610ed3611d5c565b610edd6000611dda565b565b600d54600e541115610f26576040517f08c379a0000000000000000000000000000000000000000000000000000000008152600401610f1d90613d0a565b60405180910390fd5b60003411610f69576040517f08c379a0000000000000000000000000000000000000000000000000000000008152600401610f6090613d76565b60405180910390fd5b610f71611265565b73ffffffffffffffffffffffffffffffffffffffff163373ffffffffffffffffffffffffffffffffffffffff161415610fdf576040517f08c379a0000000000000000000000000000000000000000000000000000000008152600401610fd690613de2565b60405180910390fd5b6001600e6000828254610ff29190613e02565b92505081905550600061101a6110156001600e546110109190613e02565b611ea0565b611f78565b90506001600b8260405161102e9190613e94565b908152602001604051809103902060006101000a81548160ff021916908360ff16021790555061106561105f611265565b34611fa4565b60106040518060e00160405280600e5481526020013373ffffffffffffffffffffffffffffffffffffffff16815260200161109e611265565b73ffffffffffffffffffffffffffffffffffffffff1681526020013481526020018581526020018481526020014281525090806001815401808255809150506001900390600052602060002090600702016000909190919091506000820151816000015560208201518160010160006101000a81548173ffffffffffffffffffffffffffffffffffffffff021916908373ffffffffffffffffffffffffffffffffffffffff16021790555060408201518160020160006101000a81548173ffffffffffffffffffffffffffffffffffffffff021916908373ffffffffffffffffffffffffffffffffffffffff1602179055506060820151816003015560808201518160040190805190602001906111b6929190612d1a565b5060a08201518160050190805190602001906111d3929190612d1a565b5060c0820151816006015550506111e8611265565b73ffffffffffffffffffffffffffffffffffffffff163373ffffffffffffffffffffffffffffffffffffffff167f1bdfbffaa8395b26dd08fc601508f9d05fedf05d1494416e4077df529707fb7b600e5434854260405161124c9493929190613eab565b60405180910390a361126033600e5461201f565b505050565b6000600a60009054906101000a900473ffffffffffffffffffffffffffffffffffffffff16905090565b60606001805461129e906137fc565b80601f01602080910402602001604051908101604052809291908181526020018280546112ca906137fc565b80156113175780601f106112ec57610100808354040283529160200191611317565b820191906000526020600020905b8154815290600101906020018083116112fa57829003601f168201915b5050505050905090565b61133361132c6118cf565b838361203d565b5050565b6113486113426118cf565b83611990565b611387576040517f08c379a000000000000000000000000000000000000000000000000000000000815260040161137e906139c4565b60405180910390fd5b611393848484846121aa565b50505050565b60606113a482611884565b60006113ae612206565b905060008151116113ce57604051806020016040528060008152506113f9565b806113d884611ea0565b6040516020016113e9929190613ef7565b6040516020818303038152906040525b915050919050565b600d5481565b60606010805480602002602001604051908101604052809291908181526020016000905b8282101561164b57838290600052602060002090600702016040518060e0016040529081600082015481526020016001820160009054906101000a900473ffffffffffffffffffffffffffffffffffffffff1673ffffffffffffffffffffffffffffffffffffffff1673ffffffffffffffffffffffffffffffffffffffff1681526020016002820160009054906101000a900473ffffffffffffffffffffffffffffffffffffffff1673ffffffffffffffffffffffffffffffffffffffff1673ffffffffffffffffffffffffffffffffffffffff1681526020016003820154815260200160048201805461151e906137fc565b80601f016020809104026020016040519081016040528092919081815260200182805461154a906137fc565b80156115975780601f1061156c57610100808354040283529160200191611597565b820191906000526020600020905b81548152906001019060200180831161157a57829003601f168201915b505050505081526020016005820180546115b0906137fc565b80601f01602080910402602001604051908101604052809291908181526020018280546115dc906137fc565b80156116295780601f106115fe57610100808354040283529160200191611629565b820191906000526020600020905b81548152906001019060200180831161160c57829003601f168201915b505050505081526020016006820154815250508152602001906001019061142b565b50505050905090565b6000600560008473ffffffffffffffffffffffffffffffffffffffff1673ffffffffffffffffffffffffffffffffffffffff16815260200190815260200160002060008373ffffffffffffffffffffffffffffffffffffffff1673ffffffffffffffffffffffffffffffffffffffff16815260200190815260200160002060009054906101000a900460ff16905092915050565b6116f0611d5c565b600073ffffffffffffffffffffffffffffffffffffffff168173ffffffffffffffffffffffffffffffffffffffff161415611760576040517f08c379a000000000000000000000000000000000000000000000000000000000815260040161175790613f8d565b60405180910390fd5b61176981611dda565b50565b600b818051602081018201805184825260208301602085012081835280955050505050506000915054906101000a900460ff1681565b60007f80ac58cd000000000000000000000000000000000000000000000000000000007bffffffffffffffffffffffffffffffffffffffffffffffffffffffff1916827bffffffffffffffffffffffffffffffffffffffffffffffffffffffff1916148061186d57507f5b5e139f000000000000000000000000000000000000000000000000000000007bffffffffffffffffffffffffffffffffffffffffffffffffffffffff1916827bffffffffffffffffffffffffffffffffffffffffffffffffffffffff1916145b8061187d575061187c8261221d565b5b9050919050565b61188d81612287565b6118cc576040517f08c379a00000000000000000000000000000000000000000000000000000000081526004016118c390613b83565b60405180910390fd5b50565b600033905090565b816004600083815260200190815260200160002060006101000a81548173ffffffffffffffffffffffffffffffffffffffff021916908373ffffffffffffffffffffffffffffffffffffffff160217905550808273ffffffffffffffffffffffffffffffffffffffff1661194a83610ac8565b73ffffffffffffffffffffffffffffffffffffffff167f8c5be1e5ebec7d5bd14f71427d1e84f3dd0314c0f7b2291e5b200ac8c7c3b92560405160405180910390a45050565b60008061199c83610ac8565b90508073ffffffffffffffffffffffffffffffffffffffff168473ffffffffffffffffffffffffffffffffffffffff1614806119de57506119dd8185611654565b5b80611a1c57508373ffffffffffffffffffffffffffffffffffffffff16611a04846107c1565b73ffffffffffffffffffffffffffffffffffffffff16145b91505092915050565b8273ffffffffffffffffffffffffffffffffffffffff16611a4582610ac8565b73ffffffffffffffffffffffffffffffffffffffff1614611a9b576040517f08c379a0000000000000000000000000000000000000000000000000000000008152600401611a929061401f565b60405180910390fd5b600073ffffffffffffffffffffffffffffffffffffffff168273ffffffffffffffffffffffffffffffffffffffff161415611b0b576040517f08c379a0000000000000000000000000000000000000000000000000000000008152600401611b02906140b1565b60405180910390fd5b611b1883838360016122c8565b8273ffffffffffffffffffffffffffffffffffffffff16611b3882610ac8565b73ffffffffffffffffffffffffffffffffffffffff1614611b8e576040517f08c379a0000000000000000000000000000000000000000000000000000000008152600401611b859061401f565b60405180910390fd5b6004600082815260200190815260200160002060006101000a81549073ffffffffffffffffffffffffffffffffffffffff02191690556001600360008573ffffffffffffffffffffffffffffffffffffffff1673ffffffffffffffffffffffffffffffffffffffff168152602001908152602001600020600082825403925050819055506001600360008473ffffffffffffffffffffffffffffffffffffffff1673ffffffffffffffffffffffffffffffffffffffff16815260200190815260200160002060008282540192505081905550816002600083815260200190815260200160002060006101000a81548173ffffffffffffffffffffffffffffffffffffffff021916908373ffffffffffffffffffffffffffffffffffffffff160217905550808273ffffffffffffffffffffffffffffffffffffffff168473ffffffffffffffffffffffffffffffffffffffff167fddf252ad1be2c89b69c2b068fc378daa952ba7f163c4a11628f55a4df523b3ef60405160405180910390a4611d1a8383836001612428565b505050565b60006002600083815260200190815260200160002060009054906101000a900473ffffffffffffffffffffffffffffffffffffffff169050919050565b611d646118cf565b73ffffffffffffffffffffffffffffffffffffffff16611d82611265565b73ffffffffffffffffffffffffffffffffffffffff1614611dd8576040517f08c379a0000000000000000000000000000000000000000000000000000000008152600401611dcf9061411d565b60405180910390fd5b565b6000600a60009054906101000a900473ffffffffffffffffffffffffffffffffffffffff16905081600a60006101000a81548173ffffffffffffffffffffffffffffffffffffffff021916908373ffffffffffffffffffffffffffffffffffffffff1602179055508173ffffffffffffffffffffffffffffffffffffffff168173ffffffffffffffffffffffffffffffffffffffff167f8be0079c531659141344cd1fd0a4f28419497f9722a3daafe3b4186f6b6457e060405160405180910390a35050565b606060006001611eaf8461242e565b01905060008167ffffffffffffffff811115611ece57611ecd613253565b5b6040519080825280601f01601f191660200182016040528015611f005781602001600182028036833780820191505090505b509050600082602001820190505b600115611f6d578080600190039150507f3031323334353637383961626364656600000000000000000000000000000000600a86061a8153600a8581611f5757611f5661413d565b5b0494506000851415611f6857611f6d565b611f0e565b819350505050919050565b6060600f82604051602001611f8e929190614226565b6040516020818303038152906040529050919050565b60008273ffffffffffffffffffffffffffffffffffffffff1682604051611fca90614283565b60006040518083038185875af1925050503d8060008114612007576040519150601f19603f3d011682016040523d82523d6000602084013e61200c565b606091505b505090508061201a57600080fd5b505050565b612039828260405180602001604052806000815250612581565b5050565b8173ffffffffffffffffffffffffffffffffffffffff168373ffffffffffffffffffffffffffffffffffffffff1614156120ac576040517f08c379a00000000000000000000000000000000000000000000000000000000081526004016120a3906142e4565b60405180910390fd5b80600560008573ffffffffffffffffffffffffffffffffffffffff1673ffffffffffffffffffffffffffffffffffffffff16815260200190815260200160002060008473ffffffffffffffffffffffffffffffffffffffff1673ffffffffffffffffffffffffffffffffffffffff16815260200190815260200160002060006101000a81548160ff0219169083151502179055508173ffffffffffffffffffffffffffffffffffffffff168373ffffffffffffffffffffffffffffffffffffffff167f17307eab39ab6107e8899845ad3d59bd9653f200f220920489ca2b5937696c318360405161219d9190612e71565b60405180910390a3505050565b6121b5848484611a25565b6121c1848484846125dc565b612200576040517f08c379a00000000000000000000000000000000000000000000000000000000081526004016121f790614376565b60405180910390fd5b50505050565b606060405180602001604052806000815250905090565b60007f01ffc9a7000000000000000000000000000000000000000000000000000000007bffffffffffffffffffffffffffffffffffffffffffffffffffffffff1916827bffffffffffffffffffffffffffffffffffffffffffffffffffffffff1916149050919050565b60008073ffffffffffffffffffffffffffffffffffffffff166122a983611d1f565b73ffffffffffffffffffffffffffffffffffffffff1614159050919050565b6122d484848484612764565b6001811115612318576040517f08c379a000000000000000000000000000000000000000000000000000000000815260040161230f90614408565b60405180910390fd5b6000829050600073ffffffffffffffffffffffffffffffffffffffff168573ffffffffffffffffffffffffffffffffffffffff1614156123605761235b8161276a565b61239f565b8373ffffffffffffffffffffffffffffffffffffffff168573ffffffffffffffffffffffffffffffffffffffff161461239e5761239d85826127b3565b5b5b600073ffffffffffffffffffffffffffffffffffffffff168473ffffffffffffffffffffffffffffffffffffffff1614156123e2576123dd81612920565b612421565b8473ffffffffffffffffffffffffffffffffffffffff168473ffffffffffffffffffffffffffffffffffffffff16146124205761241f84826129f1565b5b5b5050505050565b50505050565b600080600090507a184f03e93ff9f4daa797ed6e38ed64bf6a1f010000000000000000831061248c577a184f03e93ff9f4daa797ed6e38ed64bf6a1f01000000000000000083816124825761248161413d565b5b0492506040810190505b6d04ee2d6d415b85acef810000000083106124c9576d04ee2d6d415b85acef810000000083816124bf576124be61413d565b5b0492506020810190505b662386f26fc1000083106124f857662386f26fc1000083816124ee576124ed61413d565b5b0492506010810190505b6305f5e1008310612521576305f5e10083816125175761251661413d565b5b0492506008810190505b612710831061254657612710838161253c5761253b61413d565b5b0492506004810190505b60648310612569576064838161255f5761255e61413d565b5b0492506002810190505b600a8310612578576001810190505b80915050919050565b61258b8383612a70565b61259860008484846125dc565b6125d7576040517f08c379a00000000000000000000000000000000000000000000000000000000081526004016125ce90614376565b60405180910390fd5b505050565b60006125fd8473ffffffffffffffffffffffffffffffffffffffff16612c8e565b15612757578373ffffffffffffffffffffffffffffffffffffffff1663150b7a026126266118cf565b8786866040518563ffffffff1660e01b8152600401612648949392919061447d565b6020604051808303816000875af192505050801561268457506040513d601f19601f8201168201806040525081019061268191906144de565b60015b612707573d80600081146126b4576040519150601f19603f3d011682016040523d82523d6000602084013e6126b9565b606091505b506000815114156126ff576040517f08c379a00000000000000000000000000000000000000000000000000000000081526004016126f690614376565b60405180910390fd5b805181602001fd5b63150b7a0260e01b7bffffffffffffffffffffffffffffffffffffffffffffffffffffffff1916817bffffffffffffffffffffffffffffffffffffffffffffffffffffffff19161491505061275c565b600190505b949350505050565b50505050565b6008805490506009600083815260200190815260200160002081905550600881908060018154018082558091505060019003906000526020600020016000909190919091505550565b600060016127c084610e13565b6127ca9190613bd2565b90506000600760008481526020019081526020016000205490508181146128af576000600660008673ffffffffffffffffffffffffffffffffffffffff1673ffffffffffffffffffffffffffffffffffffffff168152602001908152602001600020600084815260200190815260200160002054905080600660008773ffffffffffffffffffffffffffffffffffffffff1673ffffffffffffffffffffffffffffffffffffffff168152602001908152602001600020600084815260200190815260200160002081905550816007600083815260200190815260200160002081905550505b6007600084815260200190815260200160002060009055600660008573ffffffffffffffffffffffffffffffffffffffff1673ffffffffffffffffffffffffffffffffffffffff16815260200190815260200160002060008381526020019081526020016000206000905550505050565b600060016008805490506129349190613bd2565b905060006009600084815260200190815260200160002054905060006008838154811061296457612963613b08565b5b90600052602060002001549050806008838154811061298657612985613b08565b5b9060005260206000200181905550816009600083815260200190815260200160002081905550600960008581526020019081526020016000206000905560088054806129d5576129d461450b565b5b6001900381819060005260206000200160009055905550505050565b60006129fc83610e13565b905081600660008573ffffffffffffffffffffffffffffffffffffffff1673ffffffffffffffffffffffffffffffffffffffff168152602001908152602001600020600083815260200190815260200160002081905550806007600084815260200190815260200160002081905550505050565b600073ffffffffffffffffffffffffffffffffffffffff168273ffffffffffffffffffffffffffffffffffffffff161415612ae0576040517f08c379a0000000000000000000000000000000000000000000000000000000008152600401612ad790614586565b60405180910390fd5b612ae981612287565b15612b29576040517f08c379a0000000000000000000000000000000000000000000000000000000008152600401612b20906145f2565b60405180910390fd5b612b376000838360016122c8565b612b4081612287565b15612b80576040517f08c379a0000000000000000000000000000000000000000000000000000000008152600401612b77906145f2565b60405180910390fd5b6001600360008473ffffffffffffffffffffffffffffffffffffffff1673ffffffffffffffffffffffffffffffffffffffff16815260200190815260200160002060008282540192505081905550816002600083815260200190815260200160002060006101000a81548173ffffffffffffffffffffffffffffffffffffffff021916908373ffffffffffffffffffffffffffffffffffffffff160217905550808273ffffffffffffffffffffffffffffffffffffffff16600073ffffffffffffffffffffffffffffffffffffffff167fddf252ad1be2c89b69c2b068fc378daa952ba7f163c4a11628f55a4df523b3ef60405160405180910390a4612c8a600083836001612428565b5050565b6000808273ffffffffffffffffffffffffffffffffffffffff163b119050919050565b6040518060e0016040528060008152602001600073ffffffffffffffffffffffffffffffffffffffff168152602001600073ffffffffffffffffffffffffffffffffffffffff168152602001600081526020016060815260200160608152602001600081525090565b828054612d26906137fc565b90600052602060002090601f016020900481019282612d485760008555612d8f565b82601f10612d6157805160ff1916838001178555612d8f565b82800160010185558215612d8f579182015b82811115612d8e578251825591602001919060010190612d73565b5b509050612d9c9190612da0565b5090565b5b80821115612db9576000816000905550600101612da1565b5090565b6000604051905090565b600080fd5b600080fd5b60007fffffffff0000000000000000000000000000000000000000000000000000000082169050919050565b612e0681612dd1565b8114612e1157600080fd5b50565b600081359050612e2381612dfd565b92915050565b600060208284031215612e3f57612e3e612dc7565b5b6000612e4d84828501612e14565b91505092915050565b60008115159050919050565b612e6b81612e56565b82525050565b6000602082019050612e866000830184612e62565b92915050565b6000819050919050565b612e9f81612e8c565b82525050565b6000602082019050612eba6000830184612e96565b92915050565b600081519050919050565b600082825260208201905092915050565b60005b83811015612efa578082015181840152602081019050612edf565b83811115612f09576000848401525b50505050565b6000601f19601f8301169050919050565b6000612f2b82612ec0565b612f358185612ecb565b9350612f45818560208601612edc565b612f4e81612f0f565b840191505092915050565b60006020820190508181036000830152612f738184612f20565b905092915050565b612f8481612e8c565b8114612f8f57600080fd5b50565b600081359050612fa181612f7b565b92915050565b600060208284031215612fbd57612fbc612dc7565b5b6000612fcb84828501612f92565b91505092915050565b600073ffffffffffffffffffffffffffffffffffffffff82169050919050565b6000612fff82612fd4565b9050919050565b61300f81612ff4565b82525050565b600060208201905061302a6000830184613006565b92915050565b61303981612ff4565b811461304457600080fd5b50565b60008135905061305681613030565b92915050565b6000806040838503121561307357613072612dc7565b5b600061308185828601613047565b925050602061309285828601612f92565b9150509250929050565b6000806000606084860312156130b5576130b4612dc7565b5b60006130c386828701613047565b93505060206130d486828701613047565b92505060406130e586828701612f92565b9150509250925092565b6130f881612e8c565b82525050565b61310781612ff4565b82525050565b600082825260208201905092915050565b600061312982612ec0565b613133818561310d565b9350613143818560208601612edc565b61314c81612f0f565b840191505092915050565b600060e08301600083015161316f60008601826130ef565b50602083015161318260208601826130fe565b50604083015161319560408601826130fe565b5060608301516131a860608601826130ef565b50608083015184820360808601526131c0828261311e565b91505060a083015184820360a08601526131da828261311e565b91505060c08301516131ef60c08601826130ef565b508091505092915050565b600060208201905081810360008301526132148184613157565b905092915050565b60006020828403121561323257613231612dc7565b5b600061324084828501613047565b91505092915050565b600080fd5b600080fd5b7f4e487b7100000000000000000000000000000000000000000000000000000000600052604160045260246000fd5b61328b82612f0f565b810181811067ffffffffffffffff821117156132aa576132a9613253565b5b80604052505050565b60006132bd612dbd565b90506132c98282613282565b919050565b600067ffffffffffffffff8211156132e9576132e8613253565b5b6132f282612f0f565b9050602081019050919050565b82818337600083830152505050565b600061332161331c846132ce565b6132b3565b90508281526020810184848401111561333d5761333c61324e565b5b6133488482856132ff565b509392505050565b600082601f83011261336557613364613249565b5b813561337584826020860161330e565b91505092915050565b6000806040838503121561339557613394612dc7565b5b600083013567ffffffffffffffff8111156133b3576133b2612dcc565b5b6133bf85828601613350565b925050602083013567ffffffffffffffff8111156133e0576133df612dcc565b5b6133ec85828601613350565b9150509250929050565b6133ff81612e56565b811461340a57600080fd5b50565b60008135905061341c816133f6565b92915050565b6000806040838503121561343957613438612dc7565b5b600061344785828601613047565b92505060206134588582860161340d565b9150509250929050565b600067ffffffffffffffff82111561347d5761347c613253565b5b61348682612f0f565b9050602081019050919050565b60006134a66134a184613462565b6132b3565b9050828152602081018484840111156134c2576134c161324e565b5b6134cd8482856132ff565b509392505050565b600082601f8301126134ea576134e9613249565b5b81356134fa848260208601613493565b91505092915050565b6000806000806080858703121561351d5761351c612dc7565b5b600061352b87828801613047565b945050602061353c87828801613047565b935050604061354d87828801612f92565b925050606085013567ffffffffffffffff81111561356e5761356d612dcc565b5b61357a878288016134d5565b91505092959194509250565b600081519050919050565b600082825260208201905092915050565b6000819050602082019050919050565b600060e0830160008301516135ca60008601826130ef565b5060208301516135dd60208601826130fe565b5060408301516135f060408601826130fe565b50606083015161360360608601826130ef565b506080830151848203608086015261361b828261311e565b91505060a083015184820360a0860152613635828261311e565b91505060c083015161364a60c08601826130ef565b508091505092915050565b600061366183836135b2565b905092915050565b6000602082019050919050565b600061368182613586565b61368b8185613591565b93508360208202850161369d856135a2565b8060005b858110156136d957848403895281516136ba8582613655565b94506136c583613669565b925060208a019950506001810190506136a1565b50829750879550505050505092915050565b600060208201905081810360008301526137058184613676565b905092915050565b6000806040838503121561372457613723612dc7565b5b600061373285828601613047565b925050602061374385828601613047565b9150509250929050565b60006020828403121561376357613762612dc7565b5b600082013567ffffffffffffffff81111561378157613780612dcc565b5b61378d84828501613350565b91505092915050565b600060ff82169050919050565b6137ac81613796565b82525050565b60006020820190506137c760008301846137a3565b92915050565b7f4e487b7100000000000000000000000000000000000000000000000000000000600052602260045260246000fd5b6000600282049050600182168061381457607f821691505b60208210811415613828576138276137cd565b5b50919050565b7f4552433732313a20617070726f76616c20746f2063757272656e74206f776e6560008201527f7200000000000000000000000000000000000000000000000000000000000000602082015250565b600061388a602183612ecb565b91506138958261382e565b604082019050919050565b600060208201905081810360008301526138b98161387d565b9050919050565b7f4552433732313a20617070726f76652063616c6c6572206973206e6f7420746f60008201527f6b656e206f776e6572206f7220617070726f76656420666f7220616c6c000000602082015250565b600061391c603d83612ecb565b9150613927826138c0565b604082019050919050565b6000602082019050818103600083015261394b8161390f565b9050919050565b7f4552433732313a2063616c6c6572206973206e6f7420746f6b656e206f776e6560008201527f72206f7220617070726f76656400000000000000000000000000000000000000602082015250565b60006139ae602d83612ecb565b91506139b982613952565b604082019050919050565b600060208201905081810360008301526139dd816139a1565b9050919050565b7f455243373231456e756d657261626c653a206f776e657220696e646578206f7560008201527f74206f6620626f756e6473000000000000000000000000000000000000000000602082015250565b6000613a40602b83612ecb565b9150613a4b826139e4565b604082019050919050565b60006020820190508181036000830152613a6f81613a33565b9050919050565b7f455243373231456e756d657261626c653a20676c6f62616c20696e646578206f60008201527f7574206f6620626f756e64730000000000000000000000000000000000000000602082015250565b6000613ad2602c83612ecb565b9150613add82613a76565b604082019050919050565b60006020820190508181036000830152613b0181613ac5565b9050919050565b7f4e487b7100000000000000000000000000000000000000000000000000000000600052603260045260246000fd5b7f4552433732313a20696e76616c696420746f6b656e2049440000000000000000600082015250565b6000613b6d601883612ecb565b9150613b7882613b37565b602082019050919050565b60006020820190508181036000830152613b9c81613b60565b9050919050565b7f4e487b7100000000000000000000000000000000000000000000000000000000600052601160045260246000fd5b6000613bdd82612e8c565b9150613be883612e8c565b925082821015613bfb57613bfa613ba3565b5b828203905092915050565b7f4552433732313a2061646472657373207a65726f206973206e6f74206120766160008201527f6c6964206f776e65720000000000000000000000000000000000000000000000602082015250565b6000613c62602983612ecb565b9150613c6d82613c06565b604082019050919050565b60006020820190508181036000830152613c9181613c55565b9050919050565b7f536f7272792c20616c6c204e4654732068617665206265656e206d696e74656460008201527f2100000000000000000000000000000000000000000000000000000000000000602082015250565b6000613cf4602183612ecb565b9150613cff82613c98565b604082019050919050565b60006020820190508181036000830152613d2381613ce7565b9050919050565b7f457468657220746f6f206c6f7720666f72206d696e74696e6721000000000000600082015250565b6000613d60601a83612ecb565b9150613d6b82613d2a565b602082019050919050565b60006020820190508181036000830152613d8f81613d53565b9050919050565b7f54686973206973206e6f74207065726d69747465642100000000000000000000600082015250565b6000613dcc601683612ecb565b9150613dd782613d96565b602082019050919050565b60006020820190508181036000830152613dfb81613dbf565b9050919050565b6000613e0d82612e8c565b9150613e1883612e8c565b9250827fffffffffffffffffffffffffffffffffffffffffffffffffffffffffffffffff03821115613e4d57613e4c613ba3565b5b828201905092915050565b600081905092915050565b6000613e6e82612ec0565b613e788185613e58565b9350613e88818560208601612edc565b80840191505092915050565b6000613ea08284613e63565b915081905092915050565b6000608082019050613ec06000830187612e96565b613ecd6020830186612e96565b8181036040830152613edf8185612f20565b9050613eee6060830184612e96565b95945050505050565b6000613f038285613e63565b9150613f0f8284613e63565b91508190509392505050565b7f4f776e61626c653a206e6577206f776e657220697320746865207a65726f206160008201527f6464726573730000000000000000000000000000000000000000000000000000602082015250565b6000613f77602683612ecb565b9150613f8282613f1b565b604082019050919050565b60006020820190508181036000830152613fa681613f6a565b9050919050565b7f4552433732313a207472616e736665722066726f6d20696e636f72726563742060008201527f6f776e6572000000000000000000000000000000000000000000000000000000602082015250565b6000614009602583612ecb565b915061401482613fad565b604082019050919050565b6000602082019050818103600083015261403881613ffc565b9050919050565b7f4552433732313a207472616e7366657220746f20746865207a65726f2061646460008201527f7265737300000000000000000000000000000000000000000000000000000000602082015250565b600061409b602483612ecb565b91506140a68261403f565b604082019050919050565b600060208201905081810360008301526140ca8161408e565b9050919050565b7f4f776e61626c653a2063616c6c6572206973206e6f7420746865206f776e6572600082015250565b6000614107602083612ecb565b9150614112826140d1565b602082019050919050565b60006020820190508181036000830152614136816140fa565b9050919050565b7f4e487b7100000000000000000000000000000000000000000000000000000000600052601260045260246000fd5b60008190508160005260206000209050919050565b6000815461418e816137fc565b6141988186613e58565b945060018216600081146141b357600181146141c4576141f7565b60ff198316865281860193506141f7565b6141cd8561416c565b60005b838110156141ef578154818901526001820191506020810190506141d0565b838801955050505b50505092915050565b50565b6000614210600083613e58565b915061421b82614200565b600082019050919050565b60006142328285614181565b915061423d82614203565b91506142498284613e63565b91508190509392505050565b600081905092915050565b600061426d600083614255565b915061427882614200565b600082019050919050565b600061428e82614260565b9150819050919050565b7f4552433732313a20617070726f766520746f2063616c6c657200000000000000600082015250565b60006142ce601983612ecb565b91506142d982614298565b602082019050919050565b600060208201905081810360008301526142fd816142c1565b9050919050565b7f4552433732313a207472616e7366657220746f206e6f6e20455243373231526560008201527f63656976657220696d706c656d656e7465720000000000000000000000000000602082015250565b6000614360603283612ecb565b915061436b82614304565b604082019050919050565b6000602082019050818103600083015261438f81614353565b9050919050565b7f455243373231456e756d657261626c653a20636f6e736563757469766520747260008201527f616e7366657273206e6f7420737570706f727465640000000000000000000000602082015250565b60006143f2603583612ecb565b91506143fd82614396565b604082019050919050565b60006020820190508181036000830152614421816143e5565b9050919050565b600081519050919050565b600082825260208201905092915050565b600061444f82614428565b6144598185614433565b9350614469818560208601612edc565b61447281612f0f565b840191505092915050565b60006080820190506144926000830187613006565b61449f6020830186613006565b6144ac6040830185612e96565b81810360608301526144be8184614444565b905095945050505050565b6000815190506144d881612dfd565b92915050565b6000602082840312156144f4576144f3612dc7565b5b6000614502848285016144c9565b91505092915050565b7f4e487b7100000000000000000000000000000000000000000000000000000000600052603160045260246000fd5b7f4552433732313a206d696e7420746f20746865207a65726f2061646472657373600082015250565b6000614570602083612ecb565b915061457b8261453a565b602082019050919050565b6000602082019050818103600083015261459f81614563565b9050919050565b7f4552433732313a20746f6b656e20616c7265616479206d696e74656400000000600082015250565b60006145dc601c83612ecb565b91506145e7826145a6565b602082019050919050565b6000602082019050818103600083015261460b816145cf565b905091905056fea26469706673582212208ad14e7d7b6e36c329c6f2a20b09277aaebce5afd809d890d74d760b72d02d6c64736f6c634300080b0033",
  "immutableReferences": {},
  "source": "// SPDX-License-Identifier: MIT\r\npragma solidity >=0.7.0 <0.9.0;\r\n\r\nimport \"@openzeppelin/contracts/token/ERC721/ERC721.sol\";\r\nimport \"@openzeppelin/contracts/token/ERC721/extensions/ERC721Enumerable.sol\";\r\nimport \"@openzeppelin/contracts/access/Ownable.sol\";\r\n\r\ncontract Adulam is ERC721Enumerable, Ownable {\r\n    // Defining essential variables...\r\n    using Strings for uint256;\r\n    mapping(string => uint8) public existingURIs;\r\n    uint256 public cost = 0.01 ether;\r\n    uint256 public maxSupply = 100;\r\n    uint256 public supply;\r\n    string public baseURI;\r\n\r\n    // Sales event structure\r\n    event Sale(\r\n        uint256 id,\r\n        address indexed from,\r\n        address indexed to,\r\n        uint256 cost,\r\n        string metadataURI,\r\n        uint256 timestamp\r\n    );\r\n\r\n    // The sales object of an NFT\r\n    struct SaleStruct {\r\n        uint256 id;\r\n        address from;\r\n        address to;\r\n        uint256 cost;\r\n        string title;\r\n        string description;\r\n        uint256 timestamp;\r\n    }\r\n    SaleStruct[] minted;\r\n\r\n    constructor(\r\n        string memory _name,\r\n        string memory _symbol,\r\n        string memory _baseURI\r\n    ) ERC721(_name, _symbol) {\r\n        supply = totalSupply();\r\n        baseURI = _baseURI;\r\n    }\r\n\r\n    function payToMint(\r\n        string memory title,\r\n        string memory description\r\n        ) public payable {\r\n        // Specifies criteria for minting NFTs\r\n        require(supply <= maxSupply, \"Sorry, all NFTs have been minted!\");\r\n        require(msg.value > 0 ether, \"Ether too low for minting!\");\r\n        require(msg.sender != owner(), \"This is not permitted!\");\r\n\r\n        // Defines critical math operations\r\n        supply += 1;\r\n        string memory URI = concat(Strings.toString(supply + 1));\r\n        existingURIs[URI] = 1;\r\n        sendMoneyTo(owner(), msg.value);\r\n\r\n        // Saves minted NFT in an array\r\n        minted.push(\r\n            SaleStruct(\r\n                supply,\r\n                msg.sender,\r\n                owner(),\r\n                msg.value,\r\n                title,\r\n                description,\r\n                block.timestamp\r\n            )\r\n        );\r\n\r\n        // Logs out NFT sales information\r\n        emit Sale(\r\n            supply,\r\n            msg.sender,\r\n            owner(),\r\n            msg.value,\r\n            URI,\r\n            block.timestamp);\r\n\r\n        // Mint the NFT with the ERC721 safeMint method\r\n        _safeMint(msg.sender, supply);\r\n    }\r\n\r\n    // returns all minted NFTs\r\n    function getAllNFTs() public view returns (SaleStruct[] memory) {\r\n        return minted;\r\n    }\r\n\r\n    function getAnNFTs(\r\n        uint256 tokenId\r\n        ) public view returns (SaleStruct memory) {\r\n        return minted[tokenId - 1];\r\n    }\r\n\r\n    function concat(\r\n        string memory str\r\n        ) internal view returns (string memory) {\r\n        return string(abi.encodePacked(baseURI, \"\", str));\r\n    }\r\n\r\n    function sendMoneyTo(address to, uint256 amount) internal {\r\n        (bool success1, ) = payable(to).call{value: amount}(\"\");\r\n        require(success1);\r\n    }\r\n}",
  "sourcePath": "C:\\Users\\jackt\\javascript\\adulamNFT\\contracts\\Adulam.sol",
  "compiler": {
    "name": "solc",
    "version": "0.8.11+commit.d7f03943.Emscripten.clang"
  },
  "schemaVersion": "3.4.13",
  "updatedAt": "2023-03-15T21:41:46.922Z",
  "networkType": "ethereum",
  "devdoc": {
    "kind": "dev",
    "methods": {
      "approve(address,uint256)": {
        "details": "See {IERC721-approve}."
      },
      "balanceOf(address)": {
        "details": "See {IERC721-balanceOf}."
      },
      "getApproved(uint256)": {
        "details": "See {IERC721-getApproved}."
      },
      "isApprovedForAll(address,address)": {
        "details": "See {IERC721-isApprovedForAll}."
      },
      "name()": {
        "details": "See {IERC721Metadata-name}."
      },
      "owner()": {
        "details": "Returns the address of the current owner."
      },
      "ownerOf(uint256)": {
        "details": "See {IERC721-ownerOf}."
      },
      "renounceOwnership()": {
        "details": "Leaves the contract without owner. It will not be possible to call `onlyOwner` functions anymore. Can only be called by the current owner. NOTE: Renouncing ownership will leave the contract without an owner, thereby removing any functionality that is only available to the owner."
      },
      "safeTransferFrom(address,address,uint256)": {
        "details": "See {IERC721-safeTransferFrom}."
      },
      "safeTransferFrom(address,address,uint256,bytes)": {
        "details": "See {IERC721-safeTransferFrom}."
      },
      "setApprovalForAll(address,bool)": {
        "details": "See {IERC721-setApprovalForAll}."
      },
      "supportsInterface(bytes4)": {
        "details": "See {IERC165-supportsInterface}."
      },
      "symbol()": {
        "details": "See {IERC721Metadata-symbol}."
      },
      "tokenByIndex(uint256)": {
        "details": "See {IERC721Enumerable-tokenByIndex}."
      },
      "tokenOfOwnerByIndex(address,uint256)": {
        "details": "See {IERC721Enumerable-tokenOfOwnerByIndex}."
      },
      "tokenURI(uint256)": {
        "details": "See {IERC721Metadata-tokenURI}."
      },
      "totalSupply()": {
        "details": "See {IERC721Enumerable-totalSupply}."
      },
      "transferFrom(address,address,uint256)": {
        "details": "See {IERC721-transferFrom}."
      },
      "transferOwnership(address)": {
        "details": "Transfers ownership of the contract to a new account (`newOwner`). Can only be called by the current owner."
      }
    },
    "version": 1
  },
  "userdoc": {
    "kind": "user",
    "methods": {},
    "version": 1
  }
}